:020000040800F2
:1000000038050024AD02000883270008A526000853
:100010008127000855040008913600080000000000
:100020000000000000000000000000007929000826
:100030005704000800000000852700087B290008FD
:10004000C7020008C7020008C7020008C70200086C
:10005000C7020008C7020008C7020008C70200085C
:10006000C7020008C7020008C7020008C70200084C
:10007000C7020008C7020008C7020008C70200083C
:10008000C7020008C7020008C7020008C70200082C
:10009000C7020008C7020008C7020008C70200081C
:1000A000C7020008C7020008C7020008C70200080C
:1000B000C7020008C7020008C7020008C7020008FC
:1000C000C7020008C7020008C7020008C7020008EC
:1000D000C702000889360008C7020008C7020008E6
:1000E000C7020008C702000800000000C70200089D
:1000F000C7020008C7020008C7020008C7020008BC
:10010000C7020008C7020008C7020008C7020008AB
:10011000C7020008C7020008C7020008C70200089B
:10012000C7020008C7020008C7020008C70200088B
:10013000C7020008C7020008C7020008C70200087B
:1001400000000000000000000000000000000000AF
:10015000C7020008C7020008C7020008C70200085B
:10016000C7020008C7020008C7020008C70200084B
:10017000C7020008C7020008C7020008000000000C
:10018000C7020008C7020008C7020008C70200082B
:10019000C7020008C7020008C7020008C70200081B
:1001A000C7020008C7020008C7020008C70200080B
:1001B000C7020008C7020008C7020008C7020008FB
:1001C000C7020008C7020008C7020008C7020008EB
:1001D000C7020008C7020008C7020008C7020008DB
:1001E000C7020008C7020008C7020008C7020008CB
:1001F000C7020008C7020008C7020008C7020008BB
:10020000C7020008C7020008C7020008C7020008AA
:10021000C7020008C7020008C7020008C70200089A
:10022000C7020008C7020008C7020008000000005B
:10023000C7020008C702000800000000C70200084B
:10024000C7020008C7020008C7020008C70200086A
:10025000C7020008C7020008C7020008C70200085A
:10026000C7020008C7020008C7020008C70200084A
:10027000C7020008C7020008C7020008000000000B
:10028000C7020008C7020008C702000800000000FB
:1002900000000000C7020008DFF80CD000F09AF858
:1002A00000480047D5360008380500240648804736
:1002B00006480047FEE7FEE7FEE7FEE7FEE7FEE74B
:1002C000FEE7FEE7FEE7FEE7412A00089902000884
:1002D0002DE9F05F0546002092469B46884606467B
:1002E000814640241BE0284641464746224600F00E
:1002F00060F853465A46C01A914110D31146184629
:10030000224600F047F82D1A67EB01084F462246B7
:100310000120002100F03EF817EB00094E41201E9D
:10032000A4F10104DFDC484631462A464346BDE8D5
:10033000F09F40EA01039B0703D009E008C9121FA0
:1003400008C0042AFAD203E011F8013B00F8013B8F
:10035000521EF9D27047D2B201E000F8012B491EBB
:10036000FBD270470022F6E710B513460A46044652
:100370001946FFF7F0FF204610BD30B504460020B7
:10038000034600E05B1C934203D2E05CCD5C401B63
:10039000F8D030BD202A04DB203A00FA02F1002018
:1003A00070479140C2F1200320FA03F319439040B3
:1003B0007047202A04DB203A21FA02F0002170471E
:1003C00021FA02F3D040C2F12002914008431946BD
:1003D00070470000064C074D06E0E06840F001035E
:1003E00094E8070098471034AC42F6D3FFF758FF63
:1003F000C8370008E837000802484FF4005100F001
:1004000099BB00BF0008025802481049012202F0BF
:1004100087B800BF200000242DE9F0410B4F0546AE
:100420000024787878B17E68DFF824802846414639
:100430003246FFF77EFF40468021AC557C607C70E1
:10044000FFF790FF01242046BDE8F081180000244A
:10045000B0000024FEE77047EFF3108072B6FEE7AD
:10046000F8B5044600F07AFB002C00F0B380054696
:1004700094F83500022840F0AF802768BF4EB7429D
:100480001CBFBF4887421ED0BE4887421CBFBE4823
:10049000874218D0BD4887421CBFBD48874212D052
:1004A000BC4887421CBFBC4887420CD0BB4887422F
:1004B0001CBFBB48874206D0BA4887421CBFBA4817
:1004C000874240F00B813868394620F01E003860C2
:1004D00051F8140F20F08000B74208603CD0A848C3
:1004E00087421CBFA748874236D0A74887421CBF17
:1004F000A648874230D0A64887421CBFA5488742FD
:100500002AD0A54887421CBFA448874224D0A448CB
:1005100087421CBFA34887421ED0A34887421CBF06
:10052000A248874218D0A34887421CBFA0488742F0
:1005300012D0A14887421CBFA04887420CD0A048D7
:1005400087421CBF9F48874206D09F4887421CBFF6
:100550009E48874240F0FB80206EB742016821F43C
:100560008071016024D0F84887421CBFF748874259
:100570001ED0F74887421CBFF648874218D0F6487D
:1005800087421CBFF548874212D0F54887421CBFFE
:10059000F44887420CD0F44887421CBFF348874296
:1005A00006D0F34887421CBFF248874240F0AB8038
:1005B000386820F0010038603868C00710D000F0BB
:1005C000CDFA401B0628F7D320206065032084F86D
:1005D000350003E00120F8BD80206065012079E04E
:1005E0002068B0421CBFD84988421DD0D7498842F4
:1005F0001CBFD749884217D0D64988421CBFD6496C
:10060000884211D0D54988421CBFD54988420BD0B9
:10061000D44988421CBFD449884205D0D349884276
:100620001CBFD349884279D1A16DE26D3F2302F00E
:100630001F0203FA02F28A60B0423BD0C2498842EC
:100640001CBFC249884235D0C14988421CBFC1493C
:1006500088422FD0C04988421CBFC049884229D057
:10066000BF4988421CBFBF49884223D0BE49884247
:100670001CBFBE4988421DD0BD4988421CBFBD4930
:10068000884217D0BC4988421CBFBD49884211D05E
:10069000BA4988421CBFBB4988420BD0BA4988423C
:1006A0001CBFBA49884205D0B94988421CBFB94924
:1006B000884259D1E06ED4E919124A6030B101681C
:1006C00021F480710160D4E91C014160012084F8AB
:1006D00035000020002184F83410F8BDA548874279
:1006E0003FF4F1AEA64887423FF4EDAEA248874200
:1006F0003FF4E9AEA14938688F423FF4E5AE20F0FF
:100700000E003946E8E69C4887423FF451AF9B48CB
:1007100087423FF44DAF9A48874249E7954988425E
:100720003FF482AF964988423FF47EAF92498842B7
:100730003FF47AAF914AA16D90423FF476AFE26DFB
:10074000012302F01F0203FA02F24A6074E79248A2
:1007500087423FF401AF914887423FF4FDAE904895
:1007600087423FF4F9AE23E78B498842A2D08B49F8
:1007700088429FD08A4988429CD0A7E71000024057
:100780002800024040000240580002407000024031
:1007900088000240A0000240B8000240100402405D
:1007A0002804024040040240580402407004024001
:1007B000A004024088040240B804024008540258D1
:1007C0001C54025830540258445402585854025889
:1007D000B0B500285DD090F83510022957D10168D6
:1007E000584A914223D0584B99421CBF574B9942CB
:1007F0001DD0574B99421CBF564B994217D0564BB0
:1008000099421CBF554B994211D0554B99421CBF80
:10081000544B99420BD0544B99421CBF534B9942B5
:1008200005D0534B99421CBF524B994234D191424F
:100830004FF0040380F8353023D0434881421CBF79
:10084000424881421DD0424881421CBF41488142FA
:1008500017D0414881421CBF4048814211D04048D6
:1008600081421CBF3F4881420BD03F4881421CBFA0
:100870003E48814205D03E4881421CBF3D488142EE
:100880004DD1086820F001000860002102E08021BD
:10089000416501210846B0BD374B9942C7D0374B5F
:1008A0009942C4D0364B9942C1D00A6822F00E0258
:1008B0000A600A6822F001020A60324A91420BD0B3
:1008C000314A91421CBF314A914205D0304A91428F
:1008D0001CBF304A91422BD100F158041ECC1D6838
:1008E00025F480751D6002F01F02012303FA02F255
:1008F0004A60816E6160C16E31B10A6822F4807213
:100900000A60D0E91C124A60002180F834100122EC
:1009100080F83520026D002ABCD09047B5E7164814
:100920008142AED015488142ABD015488142A8E73C
:10093000194A9142D0D0194A9142CDD0184A9142D9
:10094000CAD0E1E710000240280002404000024007
:10095000580002407000024088000240A00002409F
:10096000B800024010040240280402404004024043
:10097000580402407004024088040240B804024057
:10098000A0040240085402581C5402583054025823
:1009900044540258585402586C5402589454025803
:1009A000805402582DE9FC4F5E4A0A244FF0000A99
:1009B0004FF0000990425C4A08BF092402444FEA04
:1009C000B223092B38BF4FEAB224002200940E68EC
:1009D00036FA02F700F0A380012303FA02F716EAC1
:1009E000070B00F09680D1F804E003230EF0030C0F
:1009F000ACF10105012D13D803FA09F58468CB6821
:100A0000AC4303FA09F36FEA050823438360CEF38E
:100A100000134468BC4393405700234343600BE0FA
:100A200003FA09F3BCF1030F4F466FEA030803D141
:100A30004F464FF0030C22E0C3688C68BCF1020FF4
:100A400003EA080304FA07F443EA0403C36016D177
:100A50000AF01C030F2404FA03FC6FF0030404EAF9
:100A6000520505442C6A24EA0C0C0C6904FA03F3C1
:100A700043EA0C032B62D1F804E00EF0030C046887
:100A80001EF4403F0CFA07F304EA080443EA0403A7
:100A900003603ED0654C264E236843F0020323607A
:100AA00023680F2403F002030193019D0AF00C0355
:100AB00022F003059C40AF5927EA0404009F07FA7F
:100AC00003F32343AB514FF0B04633684D6843EA1C
:100AD0000B04EF0258BF23EA0B043460134EAF023D
:100AE000336843EA0B0458BF23EA0B043460AF03B6
:100AF000D6F8803043EA0B0458BF23EA0B04C6F84B
:100B00008040ED03F36F43EA0B0458BF23EA0B0464
:100B1000F4670AF1040A09F10209013257E7BDE856
:100B2000FC8F00BF002402580000FEA704000058FC
:100B300008040058426902EA0103914341EA034173
:100B400081617047002A08BF090481617047000075
:100B500001480068000C70470010005C0548006800
:100B6000704700BF2848034900780A6810440860AD
:100B7000704700BF3001002480B5032000F082F8E8
:100B800000F076FF0E49614B0A68C2F30322096840
:100B900001F00F019A5C595C02F01F02D0401B4A21
:100BA00001F01F011060C840064908600F2000F0E6
:100BB0000BF808B1012080BD00F02AF8002080BDAC
:100BC000184402581000002470B50F4E04463078C7
:100BD000B0B14FF47A71B1FBF0F00C490968B1FB88
:100BE000F0F001F023FA01250F2C0AD848B94FF094
:100BF000FF3021460022002500F028F8746000E054
:100C00000125284670BD00BF040000240C0000240C
:100C100081B00648016841F002010160006800F0FF
:100C200002000090009801B0704700BFF4440258E1
:100C3000002808D400F01F010122400902FA01F146
:100C4000014A42F82010704700E100E070B5134BF4
:100C50004FF0FF351B68C3F30223DC1E83F007034C
:100C600038BF0024042B28BF042305FA04F605FA34
:100C700003F3B2439943A1401143BDE8704002F031
:100C800009BD00BF05494FF6FF030A681A4060F32B
:100C90000A22034810430860704700BF0CED00E0D3
:100CA0000000FA05B0B5104D2A682968520705D42E
:100CB00001F00701081A18BF0120B0BD21F007019B
:100CC00008432860FFF74AFF044655F8080C8004E3
:100CD00007D4FFF743FF001BB0F57A7FF5D9012059
:100CE000B0BD0020B0BD00BF0C48025880B500F078
:100CF00081FE0549054A0968C1F30211515C01F002
:100D00001F01C84080BD00BF204402589037000832
:100D1000B0B53B498B6A8A6ACC6AC4F30014CD6BC8
:100D2000C5F3CC056C4300EE104AB8EE400AC2F39E
:100D30000532AAB103F00303022B15D0BBB90B682F
:100D40009B0651BF9FED311A0B68C3F3C103304CB2
:100D500042BF24FA03F301EE103AB8EE411A08E05C
:100D60000021C0E9001148E09FED271A01E09FED46
:100D7000251A8B6B9FED273A6FF35F2302EE103A33
:100D8000B8EE422A00EE032A03EE102AB7EE000A5C
:100D9000B8EE433A8A6BC2F3462232EE002A81EE65
:100DA000031A21EE021A02EE102AB8EE422A32EE9F
:100DB000002A81EE022ABCEEC22A80ED002A8A6B4C
:100DC000C2F3064202EE102AB8EE422A32EE002AA0
:100DD00081EE022ABCEEC22A80ED012A896BC1F3A2
:100DE000066102EE101AB8EE422A32EE000A81EED7
:100DF000000ABCEEC00A10EE101A8160B0BD00BF40
:100E0000004402580024744A20BCBE4B0024744C99
:100E10000090D00300000039B0B53B498B6A8A6A64
:100E2000CC6AC4F300244D6CC5F3CC056C4300EED2
:100E3000104AB8EE400AC2F30552AAB103F0030308
:100E4000022B15D0BBB90B689B0651BF9FED311A21
:100E50000B68C3F3C103304C42BF24FA03F301EE25
:100E6000103AB8EE411A08E00021C0E9001148E04C
:100E70009FED271A01E09FED251A0B6C9FED273A95
:100E80006FF35F2302EE103AB8EE422A00EE032A17
:100E900003EE102AB7EE000AB8EE433A0A6CC2F32A
:100EA000462232EE002A81EE031A21EE021A02EEE9
:100EB000102AB8EE422A32EE002A81EE022ABCEE57
:100EC000C22A80ED002A0A6CC2F3064202EE102A02
:100ED000B8EE422A32EE002A81EE022ABCEEC22A85
:100EE00080ED012A096CC1F3066102EE101AB8EE1A
:100EF000422A32EE000A81EE000ABCEEC00A10EE71
:100F0000101A8160B0BD00BF004402580024744A2A
:100F100020BCBE4B0024744C0090D003000000396C
:100F20002DE9F0470446C078A94F000721D5606E2F
:100F30004FEA3051032908D8DFE801F002090E1604
:100F4000F96941F40031F9610EE0012612E0201D3B
:100F5000022101F019FC04E004F12400022101F057
:100F60008FFC064630B9606E396C21F4401108439D
:100F7000386400266078BA46C00701D1354628E0BB
:100F8000606D04280BD83546DFE800F0030C11171C
:100F90001700F869354640F40030F8610DE001258E
:100FA000012717E0201D002101F0EEFB04E004F111
:100FB0002400002101F064FC05462F4655B9606D00
:100FC000DAF840100025524621F007010843CAF81C
:100FD00040003746607880072BD5A06D4FEAB010EF
:100FE00004280CD8DFE800F0030E13191900DAF812
:100FF0001C00514640F40030CAF81C000DE00125E9
:10100000012617E0201D002101F0BEFB04E004F1E1
:101010002400002101F034FC05462E4655B9A06D90
:10102000DAF840100025524621F4E0710843CAF86E
:1010300040003E466078400702D4B04657462AE05A
:10104000D4F8A40057464FEA7050042809D8DFE8C6
:1010500000F0030C11171700F86940F40030F86134
:101060000EE001254FF0010815E0201D002101F0E0
:101070008BFB04E004F12400002101F001FC054693
:10108000A84645B9D4F8A400B96C0025B04621F4AF
:1010900060010843B864607800072AD5D4F8A80036
:1010A0004FEA3060042809D8DFE800F0030B10167F
:1010B0001600F86940F40030F8610DE001250127C1
:1010C00018E0201D002101F05FFB04E004F1240082
:1010D000002101F0D5FB05462F465DB9D4F8A800E4
:1010E000DAF848100025524621F0E0610843CAF8BA
:1010F00048004746E078800724D5A06C4FEA3010BE
:1011000003280BD8DFE800F012020D12DAF81C00F9
:10111000514640F40030CAF81C0007E001250126C2
:1011200011E0201D022101F02FFB05462E4655B986
:10113000A06CDAF83C100025524621F0300108433B
:10114000CAF83C003E466078C0062BD5E06D4FEAF9
:10115000303004280CD8DFE800F0030E1319190012
:10116000DAF81C00514640F40030CAF81C000DE0CB
:101170000125012717E0201D002101F005FB04E0F7
:1011800004F12400002101F07BFB05462F4655B9F0
:10119000E06DDAF840100025524621F4E0410843A2
:1011A000CAF8400037466078800625D5206E4FEAA1
:1011B0003040052809D8DFE800F013030D1313139E
:1011C000201D012101F0E0FA09E00125012614E0CB
:1011D0001044025804F12400012101F051FB05469E
:1011E0002E4655B9206EDAF840100025524621F4FB
:1011F000E0210843CAF840003E466078400625D505
:10120000D4F8AC004FEA3070052809D8DFE800F0C8
:1012100011030B111111201D012101F0B5FA07E096
:101220000125012713E004F12400012101F028FB2E
:1012300005462F465DB9D4F8AC00DAF84810002511
:10124000524621F0E0410843CAF84800374660782A
:10125000000620D5E06E90B1B0F1005F0AD0B0F189
:10126000805F2CD1DAF81C00514640F40030CAF8F7
:101270001C0004E0201D012101F086FA05462E46DF
:1012800055B9E06EDAF840100025524621F0405181
:101290000843CAF840003E46E078C00702D1B04695
:1012A000574622E0606C574603280BD8DFE800F071
:1012B00013020E13F86940F40030F8610BE00125C9
:1012C0000126E9E701254FF001080EE0201D02216B
:1012D00001F05AFA0546A8463DB9606CF96B002545
:1012E000B04621F003010843F863A078400601D41A
:1012F000474616E0D7F8F00340F48070C7F8F003D3
:10130000FFF72CFC0646D7F8F003C00507D4FFF71B
:1013100025FC801B6428F6D90325032701E02F460E
:101320008DB12078C0074ED0A06F4FEAF00005289D
:1013300034D8DFE800F03C03363C3C3C201D012162
:1013400001F022FA32E0DAF86010D4F8B000554625
:10135000414011F4407F0BD0296E2A6E42F4803256
:101360002A6621F440712A6E22F480322A662966A8
:10137000B0F5807F40F01B82FFF7F0FB064641F29C
:1013800088390327DAF86000800700F10D82FFF743
:10139000E5FB801B03254845F4D9C2E7012501265A
:1013A00012E004F12400012101F06AFA05462E46FC
:1013B00055B9A06FDAF844100025524621F03801E3
:1013C0000843CAF844003E462078800721D5606F64
:1013D000052809D8DFE800F011030B111111201DB9
:1013E000012101F0D1F907E00125012712E004F104
:1013F0002400012101F044FA05462F4655B9606FDB
:10140000DAF844100025524621F007010843CAF8D3
:10141000440037462078400723D5D4F890000528AB
:1014200009D8DFE800F011030B111111201D012173
:1014300001F0AAF907E00125012613E004F12400D8
:10144000012101F01DFA05462E465DB9D4F8900041
:10145000DAF848100025524621F007010843CAF87F
:1014600048003E462078800625D5D4F88C004FEA07
:101470003070052809D8DFE800F011030B111111B5
:10148000201D002101F080F907E00125012713E06C
:1014900004F12400022101F0F3F905462F465DB95D
:1014A000D4F88C00DAF844100025524621F0E041CF
:1014B0000843CAF8440037462078400625D5D4F8BA
:1014C00098004FEAB020052809D8DFE800F01103A2
:1014D0000B111111201D002101F056F907E0012523
:1014E000012613E004F12400022101F0C9F90546A8
:1014F0002E465DB9D4F89800DAF848100025524617
:1015000021F4E0510843CAF848003E46207800061E
:1015100025D5D4F89C004FEA7030052809D8DFE8BB
:1015200000F011030B111111201D002101F02CF905
:1015300007E00125012713E004F12400022101F056
:101540009FF905462F465DB9D4F89C00DAF848109B
:101550000025524621F460410843CAF84800374646
:101560002068010717D5D4F88010B1F5805F0AD143
:1015700004F12400022101F083F9002818BF01279B
:101580002068D4F88010DAF84420534622F4405200
:101590001143CAF84410C10617D5D4F89410B1F518
:1015A000807F0AD104F12400022101F069F90028AA
:1015B00018BF01272068D4F89410DAF84820534661
:1015C00022F440721143CAF84810000320D5D4F821
:1015D000A000B0F5003F0ED0B0F5803F05D078BB3D
:1015E000201D002101F0D0F804E004F124000221C4
:1015F00001F046F905462E465DB9D4F8A000DAF8A8
:1016000048100025524621F440310843CAF84800EA
:101610003E46A078400729D5D4F88400B0F5401F95
:1016200017D0B0F5001F0ED0B0F5801F40F0B98084
:10163000DAF81C00514640F40030CAF81C0008E0FB
:1016400001250126E5E704F12400012101F018F944
:1016500005462F465DB9D4F88400DAF84410002519
:10166000524621F440110843CAF844003746A07896
:10167000C00701D13E4620E0E06CB0F5803F08D0C5
:10168000C8B9DAF81C00514640F40030CAF81C0012
:1016900004E0201D022101F077F805462E4665B9C9
:1016A000E06CDAF83C100025524621F48031084302
:1016B000CAF83C00DEE7012501262068810008D534
:1016C00004F12400022101F0DBF8002818BF0126F4
:1016D000206881031BD5E16F6FF0010202EB31221C
:1016E000022A0AD34FEA31223AB1012A06D1DAF8A6
:1016F0001C2042F40032CAF81C200DB1012606E07D
:10170000DAF8442022F440721143CAF84410C102AE
:1017100007D5216FDAF8402022F000421143CAF8C1
:101720004010C10008D5D4F8B410DAF8002022F433
:1017300080421143CAF80010810207D5A16EDAF881
:10174000402022F080721143CAF8401041000CD5AD
:10175000DAF8001021F40041CAF80010D4F8B810EB
:10176000DAF800201143CAF80010B0F1FF3F07DC9F
:10177000216DDAF83C2022F040521143CAF83C10A7
:10178000000208D5D4F88800DAF8441021F44001AA
:101790000843CAF84400002E18BF01263046BDE8B1
:1017A000F0870125012762E75546D4F8B0002A6882
:1017B000094900F4407322F47C5201EA1011B3F598
:1017C000407F6FF31F3008BF0A432A60296E084329
:1017D000286600258CE500BFCFFFFF002DE9F84308
:1017E000002800F00081814D04468846286800F0FA
:1017F0000F0088420BD2286820F00F0040EA080052
:101800002860286800F00F00404540F0EC80206818
:10181000CC4F41070AD52169BA6902F070029142A2
:1018200004D9BA6922F070021143B96101070AD5DF
:101830006169FA6902F07002914204D9FA6922F0F2
:1018400070021143F961C1060AD5A169FA6902F46F
:10185000E062914204D9FA6922F4E0621143F9612D
:1018600081060AD5E1693A6A02F07002914204D910
:101870003A6A22F070021143396210F002010AD074
:10188000E268BB6903F00F039A4204D9BB6923F0F5
:101890000F031A43BA61C2073AD0D4E90101BA6909
:1018A00022F47062032841EA0201B96105D00228DE
:1018B00007D1396889030DD495E03968890109D4C5
:1018C00091E03968012802D1C90503D48BE04907AA
:1018D00040F189803969A94621F007010843386140
:1018E000FFF73CF9064641F288356068396901F036
:1018F0003801B1EBC00F07D0FFF730F9801BA842C9
:10190000F3D90320BDE8F88320684D4600F00201BA
:1019100051B1E168BA6902F00F02914204D2BA698A
:1019200022F00F021143B961296801F00F0141450E
:101930000AD9296821F00F0141EA080129602968C4
:1019400001F00F0141454ED141070AD52169BA691D
:1019500002F07002914204D2BA6922F0700211437F
:10196000B96101070AD56169FA6902F07002914212
:1019700004D2FA6922F070021143F961C1060AD556
:10198000A169FA6902F4E062914204D2FA6922F490
:10199000E0621143F96180060AD5E069396A01F015
:1019A0007001884204D2396A21F07001084338621C
:1019B00000F05EF8B9692D4A1B4BC1F30321515C5D
:1019C00001F01F01C840B969186001F00F01515CB6
:1019D00001F01F01C8401549086005480068BDE8CE
:1019E000F843FFF7F1B80120BDE8F883002000526A
:1019F0000800002480B500F03BF80A491B4B0A6838
:101A0000C2F30322096801F00F019A5C595C02F0ED
:101A10001F02D040044A01F01F011060C840034972
:101A2000086080BD184402580C00002410000024F7
:101A300080B5FFF7DFFF0C490C4A0968C1F30211BA
:101A4000515C01F01F01C84080BD00BF80B5FFF7A9
:101A5000D1FF0549054A0968C1F30221515C01F033
:101A60001F01C84080BD00BF1C44025890370008C9
:101A700010B534490869C0F3C20003280BD002280E
:101A80002FD080BB0868800634485AD50968C1F356
:101A9000C101C84010BD8A6A886ACB6A4C6B03F0EA
:101AA0000103C4F3CC04634300EE103AB8EE400ADD
:101AB000C0F30510C8B102F00302022A17D0CAB958
:101AC0000A68920651BF9FED241A0A68C2F3C10248
:101AD000224B42BF23FA02F201EE102AB8EE411A5D
:101AE0000AE01A4810BD184810BD002010BD9FED37
:101AF000191A01E09FED161A0A6B9FED193A6FF360
:101B00005F2202EE102AB8EE422A00EE032AB7EE58
:101B1000000A32EE000A02EE100AB8EE422A086B02
:101B2000C0F3462081EE021A013021EE000A01EED8
:101B3000100AB8EE411A80EE010ABCEEC00A10EE9F
:101B4000100A10BD0044025800093D0040787D0194
:101B50000024744A20BCBE4B0024744C0090D00377
:101B600000000039F8B5002800F020810446007814
:101B7000D64EC00712D0306900F03801B06A102983
:101B800005D018292CD100F00300022828D1306894
:101B9000800303D56068002800F008812078800762
:101BA00040F18780306910F03801B06A2AD01829D6
:101BB00008BF5FEA807025D03068E16800294BD00B
:101BC00020F0190008433060FEF7C8FF0546306872
:101BD000400730D4FEF7C2FF401B0228F7D995E139
:101BE0006068002848D0B0F5803F07D03168B0F574
:101BF000A02F40F0788141F480203060306840F4BC
:101C0000803076E1E0683168490702D5002800F0AD
:101C1000CD80316821F0190108433060FEF79EFF46
:101C200005463068400706D4FEF798FF411B0320A5
:101C30000229F6D9F8BDFEF78BFF41F20301884275
:101C400030D82069716821F47C31402814BF41EA02
:101C5000003041F400302BE020F001003060FEF74E
:101C60007DFF05463068400723D5FEF777FF411B0F
:101C700003200229F6D9DDE7306820F48030306097
:101C8000306820F480203060FEF768FF0546306839
:101C900080037FF583AFFEF761FF411B03206429BA
:101CA000F5D9C7E72069716821F0FE4141EA00607B
:101CB00070602078C0063FD5306900F03801B06A06
:101CC000082905D018291BD100F00300012817D1DD
:101CD0003068C00502D5E069802867D1FEF738FF7B
:101CE00041F20301884220D8206A716821F0F8414E
:101CF000202814BF41EA806041F0804070601BE002
:101D00003068E169002900F0BD8040F0800030605B
:101D1000FEF724FF05463068C005DFD4FEF71EFF3E
:101D2000411B03200229F6D984E7206AF16821F0DB
:101D30007C5141EA0060F0602078000738D42078B8
:101D4000800647D42078400757D4676A67B3306964
:101D500000F03800182840F0A680B16A306B012FDF
:101D600024D0A26A01F0030393421FD1E26AC1F3B7
:101D7000051191421AD10146226B6FF35F21013A9E
:101D8000914213D1C0F34621626B013A91420DD1C9
:101D9000C0F30641A26B013A914207D1C0F306603D
:101DA000E16B0139884201D10020F8BD0120F8BD66
:101DB000706F6169A1B340F001007067FEF7CEFE5D
:101DC0000546706F8007BAD4FEF7C8FE401B022894
:101DD000F7D99BE03068A169002942D040F48050D7
:101DE0003060FEF7BBFE054630688004AAD4FEF7DB
:101DF000B5FE401B0228F7D988E0D6F8000440F46D
:101E00008070C6F80004FEF7A9FE0546D6F8000467
:101E1000C00516D4FEF7A2FE401B6428F6D975E073
:101E200020F001007067FEF799FE0546706F80078D
:101E30007FF585AFFEF792FE411B03200229F5D9FD
:101E4000F8E6A068002863D0012806D0316F052885
:101E500040F0D58041F004003067306F40F0010061
:101E6000D3E020F480503060FEF778FE05463068FD
:101E700080047FF567AFFEF771FE411B0320022946
:101E8000F5D9D7E620F080003060FEF767FE054602
:101E90003068C0057FF550AFFEF760FE411B0320A0
:101EA0000229F5D9C6E6306820F080703060FEF770
:101EB00055FE0546022F0BD13068800140D5FEF754
:101EC0004DFE411B03200229F6D9B3E60044025817
:101ED000306880017FF568AFFEF740FE411B0320AC
:101EE0000229F5D9A6E621F480303060306820F46C
:101EF00080203060FEF732FE0546306880033FF5F3
:101F00004DAEFEF72BFE401B6428F6D90320F8BD2A
:101F1000306F20F001003067306F20F00400306730
:101F2000FEF71CFE054641F28837306F80077FF5CB
:101F30000CAFFEF713FE411B0320B942F5D979E639
:101F400004F12805B06A40F2F33188432ECD0843EE
:101F5000591E40EA0210B0626FF35F214FF4FE0297
:101F60004FF47E4000EB452080B20844A16B02EBA9
:101F700001414FF0FE4201F4FE010844E16B02EB27
:101F8000016101F0FE41084430634FF6F871F06AD8
:101F900020F00100F062706B8843A16C40EAC10040
:101FA0007063206CF16A21F00C010843F062F06A62
:101FB000616C20F002000843F062F06A40F4803067
:101FC000F062F06A40F40030F062F06A40F4802081
:101FD000F062F06A40F00100F062306840F080701A
:101FE0003060FEF7BBFD0446306880013FF5DCAE93
:101FF000FEF7B4FD011B03200229F5D91AE621F0F2
:1020000001003067306F20F004003067FEF7A6FD56
:10201000054641F28837306F80073FF596AEFEF7F0
:102020009DFD411B0320B942F5D903E6411E002066
:10203000B0EB116F01D001207047044AF0235160CA
:1020400003490B70906007211160704710E000E0B9
:1020500023ED00E090F88010012901D1022112E067
:102060002421C0F8841001680A680B6823F001037A
:102070000B6022F000520A600021416680F8801057
:102080002022C0F884200846704770477047B0B5DA
:10209000044690F88000012801D10220B0BD242020
:1020A000C4F8840020680568026822F0010202601A
:1020B000012284F88020826822F0606211438160EE
:1020C000204600F015FD206820210560002084F8DE
:1020D0008000C4F88410B0BDB0B5044690F880000C
:1020E000012801D10220B0BD2420C4F8840020685A
:1020F0000568026822F001020260012284F8802053
:10210000826822F0604211438160204600F0F0FCBA
:10211000206820210560002084F88000C4F8841025
:10212000B0BD704770477047F8B50446006840F688
:102130002F01C26902EA010501688368202D0ED1D2
:1021400001F0200503F08056AD1900F08580216F65
:10215000002900F064812046BDE8F840084740F6B9
:102160000F052A4278D0AE4D01EA0506AD4D1D405F
:10217000761971D0D60718BF11F4807607D00126E2
:102180000662D4F88C6046F00106C4F88C6003F057
:102190000106970708D53EB102270762D4F88C7074
:1021A00047F00407C4F88C70570708D53EB10426E1
:1021B0000662D4F88C6046F00206C4F88C601607FC
:1021C0000BD501F02006354307D008250562D4F869
:1021D0008C5045F00805C4F88C5015050BD511F04E
:1021E000806508D04FF400650562D4F88C5045F046
:1021F0002005C4F88C50D4F88C50002D00F00F81CD
:1022000012F020020AD001F0200103F08052891858
:1022100004D0216F11B1204688472068D4F88C1073
:10222000806801F0280100F04000401800F0CD80E7
:10223000204600F00FFD20688168490640F1E080EB
:1022400050E8020F216820F0400041E80202002A15
:1022500000F0CC802068F3E701EA0205EE06E66EA6
:1022600039D5012E37D110210162816849063FD44A
:10227000B4F85E10B4F85C20B4F85E30002B00F0C7
:10228000CE80511A0A0401D1C9E0206850E8000F3D
:10229000226820F4907042E80003002BF5D16348D7
:1022A000226852E8022F2368024043E80225002DED
:1022B000F6D12020C4F8880000202067E06620685E
:1022C00050E8000F226820F0100042E80003002BC5
:1022D000F5D189B254E0D60257D513F4800654D014
:1022E0004FF4801101622046BDE8F840FFF71ABFA5
:1022F000E26F11684B689DB2002D00F09080B4F839
:102300005C108D4280F08B80A4F85E30D269B2F50B
:10231000807F31D050E8000F216820F4807041E8C0
:1023200000020AB12068F5E7206850E8020F216832
:1023300020F0010041E80202002AF5D1206850E8AF
:10234000020F216820F0400041E80202002AF5D186
:102350002020C4F888000020E066206850E8000FC4
:10236000216820F0100041E80002002AF5D1E06F5A
:10237000FEF776F8B4F85C10B4F85E00081A81B283
:102380002046BDE8F840FFF780BE160607D501F0ED
:10239000800603F400039B1901D0616FD8E66B0639
:1023A00009D4100231D511F080402ED02046BDE86E
:1023B000F840FFF7B6BE50E8000F216820F040005B
:1023C00041E8000242B12068F5E72046FFF7ABFE86
:1023D0000020C4F88C00F8BD002060672020C4F8FD
:1023E00084002046BDE8F84000F05BB9E06F38B1EA
:1023F0000D490165FEF7ECF988B1E06F016DABE6C0
:102400002046BDE8F840FFF78EBED00107D5B1F1F8
:10241000FF3F04DC2046BDE8F840FFF737BEF8BDBB
:102420002001000401000010432C0008FEFFFFEF14
:1024300010B5B0B10446D0F8840028B9002084F863
:102440008000204600F026F82420C4F8840020688C
:10245000016821F001010160204600F049FE0128D9
:1024600001D1012010BDA06A10B1204600F062FB2E
:102470002068416821F490414160816821F02A017F
:102480008160016841F0010101602046BDE8104013
:1024900000F0A5BB10B5B6B0044631A81421FDF775
:1024A00061FF02A8BC21FDF75DFF2068B3498842A7
:1024B00031D1012002900024209402A8FEF730FDC3
:1024C00008B1FDF7C9FF9248016941F010010161AF
:1024D000016901F0100101910199016841F00101C8
:1024E0000160006831A900F00100019007203590DB
:1024F000CDE93344022032904FF4C060319001980E
:102500000648FEF74FFA252000210022FEF79EFB29
:102510002520FEF78DFB36B010BD00BF000002582D
:10252000B0B5D0F88830202B06D1012329B122B1D3
:1025300090F88030012B02D102231846B0BD002351
:10254000C3660C4C012380F880300368A34202D09C
:102550005C68240203D400F08FFF0023EDE753E80A
:10256000003F046843F0806344E80035002DF2D05A
:102570000368F4E7000C005800688049884218BFDF
:10258000704712484178D9B901780D2905D008293A
:102590000BD14168A1B1013911E041680C4A002317
:1025A000535401224270013109E0202908D37E29C9
:1025B00006D842687E2A03D8054B9954511C4160C5
:1025C0006D4802490122FFF7ABBF00BF180000248D
:1025D000B00000242DE9FC470446D0F884002028F0
:1025E0000AD10D460120002959D01646002A56D09E
:1025F00094F88000012802D10220BDE8FC87012068
:102600004FF0000AC4F88CA084F88000994621207D
:10261000C4F88400FEF7A2FAA4F856608046A4F835
:102620005460A068B0F5805F06D127690026002FAE
:102630000CBF2E462F4601E02F46002684F880A0CE
:10264000B4F85600D8B12046802100224346CDF888
:10265000009000F0AFFFD8B927B1216817F8010B3F
:10266000886206E036F8021B206800276FF35F21BE
:102670008162B4F856000138A4F85600E0E720461D
:10268000402100224346CDF8009000F093FF10B1A6
:102690000320BDE8FC872020C4F884000020BDE8AA
:1026A000FC877047FEE70000F0B587B018480025AA
:1026B0000695184C01224FF400560127016841F09D
:1026C00004010160016801F00401019101990168B0
:1026D00041F001010160016801F0010101910199DE
:1026E000016841F08001016000684FF4005100F082
:1026F0008000019001982046FEF724FA02A92046A6
:10270000CDE90455CDE90267FEF74CF907B0F0BDFD
:10271000E04402580008025810B5174C0C20002164
:102720004FF4E132154BC4E90032C4E90211C4E9A7
:10273000041004F118001421FDF714FE2046FFF7E1
:1027400077FE08B1FDF788FE0B480021FFF7C4FCB7
:1027500008B1FDF781FE08480021FFF798FC08B199
:10276000FDF77AFE0448FFF775FC18B1BDE810408C
:10277000FDF772BE10BD00BF200000240010014014
:10278000FEE7FEE770470000F8B5D14F0546B86A8E
:1027900000F00300032801D10120F8BD38680C4681
:1027A00020F080603860FEF7D9F9064638680001ED
:1027B00005D5FEF7D3F9801B0228F7D95CE095E830
:1027C0000F00BE6A26F47C36A1F1010146EA003012
:1027D000B8626FF35F214FF47E4000EB42204FF070
:1027E000FE4280B208444FF4FE0101EB034101F4C4
:1027F000FE010844296902EB016101F0FE41084431
:10280000B8636869F96A21F0C00140EA0100F86222
:10281000A869F96A21F0200140EA0100F8624FF648
:10282000F871F86A20F01000F862F86B20EA0100F5
:10283000E96940EAC100F863F86A40F01000F86204
:102840003CB1F86A012C14BF40F4001040F4801031
:1028500002E0F86A40F40020F862386840F08060D6
:102860003860FEF77BF904463868000106D4FEF7AD
:1028700075F9001B0328F7D30320F8BD0020F8BD2D
:10288000F8B5934F0546B86A00F00300032801D15C
:102890000120F8BD38680C4620F080503860FEF703
:1028A0005DF906463868800005D5FEF757F9801BAC
:1028B0000228F7D95CE095E80F00BE6A26F07C7626
:1028C000A1F1010146EA0050B8626FF35F214FF4B5
:1028D0007E4000EB42204FF0FE4280B208444FF4AD
:1028E000FE0101EB034101F4FE010844296902EBFA
:1028F000016101F0FE41084438646869F96A21F415
:10290000406140EA0100F862A869F96A21F40071A7
:1029100040EA0100F8624FF6F871F86A20F480701E
:10292000F862786C20EA0100E96940EAC100786445
:10293000F86A40F48070F8623CB1F86A012C14BF68
:1029400040F0807040F4000002E0F86A40F480003B
:10295000F862386840F080503860FEF7FFF80446AF
:102960003868800006D4FEF7F9F8001B0328F7D377
:102970000320F8BD0020F8BD7047FEF7F3B8000053
:10298000B0B59CB009A84C21FDF7ECFC01A82021B2
:10299000FDF7E8FC0220FEF785F9002000902648AC
:1029A000016841F440410160016801F44041009137
:1029B00022490A6842F001020A60096801F0010137
:1029C0000091009901688904FCD50220C0210024EF
:1029D000CDE91A44082519951890CDE916001591EE
:1029E00005211491CDE9120001200E904FF48030A2
:1029F0000A900920099009A8FFF7B4F818B1EFF37D
:102A0000108072B6FEE740204FF480610791089075
:102A1000CDE90500CDE903450320029004213F20C4
:102A2000019001A8FEF7DAFE18B1EFF3108072B63C
:102A3000FEE71CB0B0BD00BF184802582C04005877
:102A400010B52148214A016841F470010160106805
:102A500000F00F00062804D81068072161F3030076
:102A600010601B481B4C016841F00101016000210E
:102A7000016103682340036013681B0704D51368D2
:102A8000072464F303031360134A8161C161016287
:102A90008262124AC262124A026341638263C16364
:102AA00002644164026822F48022026001660D48DB
:102AB0000068B1EB507F02D10B48012101600B4847
:102AC00043F2D201016010BD88ED00E00020005209
:102AD000004402587FEDF6EA000202020000FF0106
:102AE000800201010010005C08810051004000528A
:102AF000B0B5416E91B102680C4B0D4D9168C1F3B8
:102B000042619268520F5C5C695C9B5CAA5C090143
:102B10001201B1FBF4F1B2FBF3F201E00122012159
:102B2000A0F86810A0F86A20B0BD00BFC037000848
:102B3000B837000810B5816ACA0706D00268C36AB0
:102B4000546824F40034234353608A0706D502688E
:102B5000036B546824F48034234353604A0706D53A
:102B60000268436B546824F48024234353600A07AB
:102B700006D50268836B546824F4004423435360F1
:102B8000CA0606D50268C36B946824F480542343B4
:102B900093608A0606D50268036C946824F4005496
:102BA000234393604A0610D50268436CB3F5801F37
:102BB000546824F4801444EA0304546005D1836CFF
:102BC000546824F4C00423435360090606D5016801
:102BD000C06C4A6822F400221043486010BDBCB5A6
:102BE00004460020C4F88C00FDF7B8FF05462068B5
:102BF000016809070BD56FF07E4000904FF400117B
:102C000000222B46204600F0D5FC70B920680068F1
:102C100040070CD56FF07E4000904FF480010022F9
:102C20002B46204600F0C6FC08B10320BCBD202086
:102C3000C4F88400C4F88800002084F88000E066AE
:102C4000BCBD806B0021A0F85E10A0F85610FFF705
:102C50006ABA000010B5016851E8001F026821F44B
:102C6000907142E80013002BF5D19649026852E8B2
:102C7000022F03680A4043E80224002CF6D1C16EFB
:102C8000012909D1016851E8001F026821F01001F3
:102C900042E80013002BF5D12021C0F88810002154
:102CA0000167C16610BD00BF0168D0F88820222AE4
:102CB00041D1B0F860204B6A1A40836D23F8022B93
:102CC000B0F85E20013AA0F85E208365B0F85E207F
:102CD0000AB17047016851E8001F026821F4907141
:102CE00042E80013002BF5D1016851E8021F026889
:102CF00021F0010142E80213002BF5D12021C0F898
:102D0000881000210167C26E012A19D1C1660168CD
:102D100051E8001F026821F0100142E80013002B67
:102D2000F5D10168CA69D20601D510220A62B0F84D
:102D30005C10FFF7AAB9886940F008008861704705
:102D4000FFF71ABC2DE9F84F04460068D0F81CA024
:102D500001688268B4F86090D4F88830222B40F083
:102D60008B80B4F8687002F0010601F48078DF4DC2
:102D70004FF0000B002F00F084801AF0200000F0CC
:102D800080802068A16D426A02EA090221F8022BC4
:102D9000B4F85E20013AA4F85E20A165D0F81CA02A
:102DA0005FEA4A712DD0B8F1000F18BF1AF0010187
:102DB00007D001210162D4F88C1041F00101C4F860
:102DC0008C1056B11AF0020107D002210162D4F82A
:102DD0008C1041F00401C4F88C1056B11AF00401B3
:102DE00007D004210162D4F88C0040F00200C4F83E
:102DF0008C00D4F88C0020B12046FFF794F9C4F879
:102E00008CB0B4F85E000028B4D1206850E8000F00
:102E1000216820F4807041E80002002AF5D1206882
:102E200050E8020F2168284041E80202002AF6D14A
:102E30002020C4F88800C4F870B0E06E012817D1D3
:102E4000C4F86CB0206850E8000F216820F0100032
:102E500041E80002002AF5D12068C169C90601D500
:102E600010210162B4F85C102046FFF70EF981E7EB
:102E70002046FFF781FB7DE7816941F00801816110
:102E80001CE0B4F85E00C8B1B4F86810884215D2EE
:102E9000206850E8020F216820F0805041E80202CB
:102EA000002AF5D106482067206850E8000F216805
:102EB00040F0200041E80002002AF5D1BDE8F88F7B
:102EC000A92C0008FEFFFFEF0168D0F88820222A15
:102ED00042D1B0F86020496A1140826D1170B0F89B
:102EE0005E100139A0F85E10816D01318165B0F886
:102EF0005E1001B17047016851E8001F026821F4BB
:102F0000907142E80013002BF5D1016851E8021FCF
:102F1000026821F0010142E80213002BF5D12021C3
:102F2000C0F8881000210167C26E012A19D1C1665C
:102F3000016851E8001F026821F0100142E8001307
:102F4000002BF5D10168CA69D20601D510220A62A8
:102F5000B0F85C10FFF799B8886940F00800886104
:102F60007047FFF709BB00002DE9F84F04460068E1
:102F7000D0F81CA001688268B4F86090D4F888305A
:102F8000222B40F08D80B4F8687002F0010601F445
:102F90008078564D4FF0000B002F00F086801AF01D
:102FA000200000F082802068A16D406A00EA0900DC
:102FB0000870B4F85E000138A4F85E00A16D2068C6
:102FC0000131A165D0F81CA05FEA4A712DD0B8F19B
:102FD000000F18BF1AF0010107D001210162D4F8D7
:102FE0008C1041F00101C4F88C1056B11AF00201A6
:102FF00007D002210162D4F88C1041F00401C4F81A
:103000008C1056B11AF0040107D004210162D4F8E3
:103010008C0040F00200C4F88C00D4F88C0020B181
:103020002046FFF780F8C4F88CB0B4F85E000028A2
:10303000B2D1206850E8000F216820F4807041E888
:103040000002002AF5D1206850E8020F21682840CC
:1030500041E80202002AF6D12020C4F88800C4F812
:1030600070B0E06E012817D1C4F86CB0206850E849
:10307000000F216820F0100041E80002002AF5D17D
:103080002068C169C90601D510210162B4F85C103D
:103090002046FEF7FAFF7FE72046FFF76DFA7BE751
:1030A000816941F0080181611CE0B4F85E00C8B19B
:1030B000B4F86810884215D2206850E8020F2168E1
:1030C00020F0805041E80202002AF5D1064820672E
:1030D000206850E8000F216840F0200041E800021D
:1030E000002AF5D1BDE8F88FC92E0008FEFFFFEFDA
:1030F000FEB50446016880689E4ED4E903230D683E
:103100002E40184365699C4B2843E56928433043AA
:1031100008609A4E4868B14220F4405040EA0200EC
:103120004860A0691CBF226A10438A681A40944B09
:1031300010438860626AC86A20F00F001043C862BA
:103140009048814228D09048814232D08F488142B5
:103150003CD08F48814246D08E48814200F050805A
:103160008D48814200F05880B14200F061808B4868
:10317000814200F069808A48814240F07B80586D2E
:103180009C46C0F3C200052800F275800127DFE8E5
:1031900000F07367696B6D6F586D9C4600F0070017
:1031A000052800F268800027DFE800F0665A5C5EC0
:1031B0006062586D9C4600F00700052800F25B80B5
:1031C0000027DFE800F0594D4F515355586D9C468C
:1031D00000F00700052800F24E800027DFE800F02D
:1031E0004C4042444648586D9C4600F00700052874
:1031F00000F241800027DFE800F03F333537393BEC
:10320000586D9C4600F00700052834D80027DFE8F9
:1032100000F03327292B2D2F586D9C4600F0070016
:10322000052828D80027DFE800F0271B1D1F2123D1
:10323000986D9C4600F0070005281CD80227DFE89F
:1032400000F01B0F11131517586D9C46C0F3C200F8
:10325000052810D80127DFE800F00F030507090B48
:10326000042709E0082707E0102705E0202703E0EE
:10327000402701E09C4680277B48B1420FD00121C6
:10328000B5F5004F1BD1082F25D8DFE807F00570F2
:10329000CFCF8BCFCFCF8F00FEF7CAFB8AE0402F76
:1032A00030D0042F31D0082F33D0102F3AD0202F18
:1032B00042D0022F40F0B980FDF718FD2DE0082F15
:1032C00014D8DFE807F00591B3B394B3B3B3980013
:1032D000FEF7AEFB93E0102F00F0B080202F6BD0F4
:1032E000402F40F0A3804FF4004065E0102F00F025
:1032F000B080202F00F08580402F40F097804FF461
:1033000000407EE04FF4004016E06846FDF700FD07
:1033100002E06846FDF780FD0198002800F08380F8
:10332000626A09E0DCF800008006504804D5DCF849
:103330000010C1F3C101C8404D4931F81210626854
:10334000B0FBF1F002EB4203012198426ED313036C
:1033500098426BD8010E0002002310EB520041F19D
:103360000001FCF7B5FFA0F54071424A57E0FEF7B7
:103370006DFB1FE0F369FFCFFFF4FF11000C005855
:10338000004402580044004000480040004C004007
:103390000050004000780040007C004000140140D4
:1033A000001001406846FDF7B3FC02E06846FDF7F7
:1033B00033FD0198B8B3626A2D4931F81210B0FBA1
:1033C000F1F061684A0802EB40004FF6EF72B0FB83
:1033D000F1F0A0F11001914227D84FF6F0710140B1
:1033E000C0F3420008441CE0FEF730FB07E06846EB
:1033F000FDF78EFC02E06846FDF70EFD019890B1E6
:10340000626A1B4931F812104FF6EF72B0FBF1F00F
:10341000616800EB5100B0FBF1F0A0F110019142A6
:1034200003D82168C860002100E001210020C4E920
:103430001C004FF00110A0660846FEBDDCF800003D
:1034400080060A48B8D5DCF80010C1F3C101C840B5
:10345000B2E7DCF8000080060448D2D5DCF80010A2
:10346000C1F3C101C840CCE700093D000090D00382
:10347000A0370008FFFC0F0010B5A0F85E208165A2
:1034800000210167A0F85C20816851B1B1F1805F33
:103490000BD0B1F5805F0CD1016921B940F2FF1169
:1034A0000AE0016939B9FF2106E0016919B13F213C
:1034B00002E0002100E07F21A0F860100021C0F8A8
:1034C0008C102221C0F88810016851E8021F03689F
:1034D00041F0010143E80214002CF5D1416EB1F135
:1034E000005F03D1B0F8681091421CD9826801696D
:1034F000B2F5805F06D111B3002180F880102B490E
:10350000016705E0002280F88020284A0267D9B1CF
:10351000016851E8001F026841F4907142E800130D
:10352000002BF5D13BE082680169B2F5805F16D1CE
:1035300031B3002180F880101A49016715E000219D
:1035400080F880101A490167016851E8001F02687D
:1035500041F0200142E80013002BF5D11FE00022CA
:1035600080F880200F4A026779B1016851E8001F96
:10357000026841F4807142E80013002BF5D104E0A9
:10358000002180F8801008490167016851E8021F96
:10359000026841F0805142E80213002BF5D100206F
:1035A00010BD00BF692F0008452D0008C92E000876
:1035B000A92C00082DE9F843DDF820900446984630
:1035C00016460F46006809F10105C1693940C91B5B
:1035D000B1FA81F14909B1421FD1002DF5D0FDF7B3
:1035E000BDFAB9F1000F1BD0A0EB0800484517D871
:1035F00020680168490744BFC1695FEA0151E4D509
:103600004FF40061016250E8000F216820F4D0708F
:1036100041E80002F2B12068F5E70020BDE8F88338
:10362000206850E8000F216820F4D07041E80002C3
:10363000002AF5D1206850E8020F216820F001002F
:1036400041E80202002AF5D12020C4F8840004F1E8
:10365000880010E0206850E8020F216820F0010087
:1036600041E80202002AF5D12020C4F88400C4F801
:10367000880004F18C00002184F880102021016072
:103680000320BDE8F88300001148FEF74DBD00BFE0
:10369000FEE7000010B500F00F03064C044AB0F13D
:1036A000FF3F2344C8BF83180801187010BD00BF36
:1036B00000E400E014ED00E0E0B50190044801A949
:1036C00001224FF0FF33FEF785FF01988CBD00BF4C
:1036D00020000024A0B0FDF74FFAFFF751F9FEF7E4
:1036E000E3FFFFF719F80EA000F040F8FCF78CFE9E
:1036F0006C460FA511A6FCF77FFE2046FCF78CFE5A
:10370000204629460C22FCF738FE0028F3D130462B
:1037100000F02CF820468021FCF724FEEBE700BFE8
:10372000626F6F746C6F61646572200D0000000041
:1037300068656C6C6F20776F726C640068656C6C88
:103740006F20776F726C640D0000000002E008C803
:10375000121F08C1002AFAD170477047002001E00B
:1037600001C1121F002AFBD17047000010B50446AA
:1037700001E0FFF7A1FF14F8010B04490028F8D17C
:10378000BDE810400A20FFF797BF000000000024AA
:1037900000000000010203040102030406070809F7
:1037A000010002000400060008000A000C001000DE
:1037B000200040008000000101010103070100001A
:1037C0000804020408010101E83700080000002491
:1037D000180000004C3700080038000818000024CA
:1037E000200500005C370008000000000100000018
:1037F000100000000090D0030090D00300000000F3
:040000050800029954
:00000001FF
